:020000040800F2
:1000000000000220D13C0008852300088723000857
:10001000892300088B2300088D23000800000000BE
:100020000000000000000000000000008F23000816
:100030009123000800000000932300089523000886
:10004000213D0008213D0008213D0008213D000818
:10005000213D0008213D0008213D0008213D000808
:10006000213D0008213D0008213D0008213D0008F8
:10007000213D0008213D0008213D0008213D0008E8
:10008000213D0008213D0008213D0008213D0008D8
:10009000213D0008213D0008213D0008213D0008C8
:1000A000213D0008213D0008213D0008213D0008B8
:1000B000213D0008213D0008213D0008213D0008A8
:1000C000213D0008213D0008213D0008213D000898
:1000D000213D0008213D0008213D0008213D000888
:1000E000213D0008213D0008213D0008213D000878
:1000F000213D0008213D0008213D0008213D000868
:10010000213D0008213D0008213D0008213D000857
:10011000213D0008213D0008213D0008213D000847
:10012000213D0008213D0008213D0008213D000837
:10013000213D0008213D0008213D0008213D000827
:10014000213D0008213D0008213D0008213D000817
:10015000213D0008213D0008213D0008213D000807
:10016000213D0008213D0008213D0008213D0008F7
:10017000213D0008213D0008213D0008000000004D
:08018000213D0008213D0008AB
:1001900010B5054C237833B9044B13B10448AFF3C1
:1001A00000800123237010BD90000020000000009B
:1001B0000846000808B5034B1BB103490348AFF3D9
:1001C000008008BD000000009400002008460008E0
:1001D00001F0FF01102A2BDB10F0070F08D010F8F8
:1001E000013B013A8B422DD010F0070F42B3F6D1FC
:1001F000F0B441EA012141EA014122F007047FF015
:1002000000070023F0E80256083C85EA010586EA6B
:10021000010685FA47F5A3FA87F586FA47F6A5FAA7
:1002200087F68EB9EED1F0BC01F0FF0102F00702B3
:1002300032B110F8013B013A83EA010313B1F8D15E
:100240000020704701387047002D06BF354603383F
:10025000073815F0010F07D1013015F4807F02BF78
:10026000013015F4C03F0130F0BC0138704700BFC9
:1002700053B94AB9002908BF00281CBF4FF0FF310D
:100280004FF0FF3000F07AB9ADF1080C6DE904CE03
:1002900000F006F8DDF804E0DDE9022304B0704761
:1002A0002DE9F0478C460D460446089E002B51D19F
:1002B0008A4217466DD9B2FA82FEBEF1000F0BD00A
:1002C000CEF1200C01FA0EF520FA0CFC02FA0EF722
:1002D0004CEA050C00FA0EF44FEA174A250CBCFB59
:1002E000FAF81FFA87F90AFB18CC45EA0C4508FB17
:1002F00009F3AB420AD9ED1908F1FF3280F02381EE
:10030000AB4240F22081A8F102083D44ED1AA4B2AC
:10031000B5FBFAF00AFB105544EA054400FB09F965
:10032000A14509D9E41900F1FF3380F00A81A14504
:1003300040F2078102383C44A4EB090440EA08403B
:100340000021002E61D024FA0EF400233460736083
:10035000BDE8F0878B4207D9002E54D0002186E8F3
:1003600021000846BDE8F087B3FA83F1002940F088
:100370008E80AB4202D3824200F2FA80841A65EB8F
:1003800003050120AC46002E3FD086E81010BDE8E2
:10039000F08712B90127B7FBF2F7B7FA87FEBEF173
:1003A000000F34D1EB1B3A0C1FFA87FC0121B3FB81
:1003B000F2F8250C02FB183345EA03450CFB08F361
:1003C000AB4207D9ED1908F1FF3002D2AB4200F27F
:1003D000D1808046ED1AA3B2B5FBF2F002FB1055B6
:1003E00043EA05440CFB00FCA44507D9E41900F1DD
:1003F000FF3302D2A44500F2B8801846A4EB0C04E7
:1004000040EA08409DE731463046BDE8F087CEF12E
:10041000200405FA0EF307FA0EF720FA04F83A0C56
:1004200025FA04F448EA0308B4FBF2F14FEA184550
:1004300002FB11441FFA87FC45EA044501FB0CF35B
:10044000AB4200FA0EF409D9ED1901F1FF3080F04A
:100450008A80AB4240F2878002393D44EB1A1FFA92
:1004600088F5B3FBF2F002FB103345EA034500FBCD
:100470000CF3AB4207D9ED1900F1FF386FD2AB4254
:100480006DD902383D44EB1A40EA01418FE7C1F1D2
:10049000200722FA07F88B4005FA01F448EA030323
:1004A00020FA07FE4FEA134CFD404EEA040EB5FB5E
:1004B000FCF94FEA1E440CFB19551FFA83F844EA75
:1004C000054509FB08F4AC4202FA01F200FA01FA10
:1004D00008D9ED1809F1FF3043D2AC4241D9A9F156
:1004E00002091D442D1B1FFA8EFEB5FBFCF00CFB10
:1004F00010554EEA054400FB08F8A04507D9E4185A
:1005000000F1FF3529D2A04527D902381C4440EA22
:100510000940A4EB0804A0FB02894C45C6464D46A1
:1005200015D312D056B1BAEB0E0364EB050404FAEE
:1005300007F7CB401F43CC40376074600021BDE813
:10054000F0871846F8E69046E0E6C245EAD2B8EBF6
:10055000020E69EB03050138E4E72846D7E7404679
:1005600091E78146BEE7014678E702383C4445E71B
:10057000084608E7A8F102083D442BE7704700BF92
:1005800038B50E4A0E4B054618784FF47A73B3FB14
:10059000F0F31068B0FBF3F000F09CF8044658B993
:1005A0000F2D09D8024629464FF0FF3000F05EF8C3
:1005B000044B20461D6038BD012038BD28000020B6
:1005C000000000200400002008B50B4B1A6842F41C
:1005D00000721A601A6842F480621A601A6842F463
:1005E00080721A60032000F02FF80020FFF7C8FF88
:1005F00001F024FE002008BD003C0240034A044BE9
:1006000011681B780B441360704700BFC4010020C1
:1006100000000020014B1868704700BFC401002093
:1006200038B50446FFF7F6FF631C1CBF054B1B786B
:10063000054618BFE418FFF7EDFF401B8442FAD8C7
:1006400038BD00BF00000020074AD36823F4E063F0
:100650001B041B0C43F0BF63000243F4003300F49F
:10066000E0600343D360704700ED00E0174B30B506
:10067000DC68C4F30224C4F10703251D042B28BF42
:100680000423062D4FF0010505FA03F303F1FF33B0
:100690008CBF033C00241940A14005FA04F4013C3E
:1006A0002240002842EA01024FEA0212ADBF00F1E7
:1006B000604000F00F00064B00F56140B5BFD2B2BC
:1006C000D2B21A5480F8002330BD00BF00ED00E024
:1006D00014ED00E00138B0F1807F0AD2064B074AE2
:1006E0005860F02182F823100020072298601A60D9
:1006F00070470120704700BF10E000E000ED00E00F
:100700002DE9F04F85B00B68DFF8AC81684ADFF85F
:10071000AC91019300230124019D9C402540AC42F3
:1007200040F0B0804C6824F0100C0CF1FF36012E24
:100730004FEA430E12D88768032606FA0EF627EA18
:100740000607CE6806FA0EF63E4386604768C4F395
:10075000001627EA05079E403E4346600326C76809
:1007600006FA0EF6F64307EA060A8F6807FA0EF74E
:1007700047EA0A07BCF1020FC76016D14FEAD30A55
:1007800000EB8A0A03F0070BDAF820704FEA8B0BB4
:100790004FF00F0C0CFA0BFC27EA0C0C0F6907FA50
:1007A0000BF747EA0C07CAF8207007683E4004F0D0
:1007B000030707FA0EFE4EEA06060660E60061D55C
:1007C0004FF0000BCDF80CB0D8F84470394E47F418
:1007D0008047C8F84470D8F8447007F480470397FE
:1007E000039F23F0030707F1804707F59C3703F0C9
:1007F000030CD7F808A04FEA8C0C4FF00F0E0EFA3E
:100800000CFEB0422AEA0E0E43D006F58066B042D6
:1008100041D006F58066B0423FD006F58066B04212
:100820003DD006F58066B0423BD048453BD006F54A
:100830000066B04239D006F58066B04214BF082683
:10084000072606FA0CF646EA0E06BE601668EF4367
:1008500014F4803F0CBF3E402E431660566814F4DB
:10086000003F0CBF3E402E435660966814F4801F34
:100870000CBF3E402E439660D668A40254BF3E4053
:100880002E43D6600133102B7FF445AF05B0BDE891
:10089000F08F5E46D5E70126D3E70226D1E703268F
:1008A000CFE70426CDE70526CBE70626C9E700BF3C
:1008B000003C0140000002400038024000140240A9
:1008C0000369194214BF0120002070470AB18161F9
:1008D00070470904FBE7436931EA030308BF0904D1
:1008E000816170472DE9F341044608B901203FE0DA
:1008F0000368DD0710D4236898075AD423681A07C1
:1009000000F19C8023685B0700F1BA80A069002891
:1009100040F01B8100202BE0A44B9A6802F00C02EF
:10092000042A07D09A6802F00C02082A0AD15B68F0
:10093000590207D59D4B1B689A03DCD56368002BD1
:10094000D9D1D3E76368994DB3F5803F13D12B68B4
:1009500043F480332B60FFF75DFE944D06462B6811
:100960009B03C8D4FFF756FE801B6428F7D90320E9
:1009700002B0BDE8F081B3F5A02F04D12B6843F499
:1009800080232B60E3E72A6822F480322A602A68F9
:1009900022F480222A60002BDDD1FFF73BFE0646C1
:1009A0002B689F03A7D5FFF735FE801B6428F7D976
:1009B000DDE77E4B9A6812F00C0F07D09A6802F0C0
:1009C0000C02082A11D15B685E020ED4774B1A68BC
:1009D000950702D5E268012A88D11A68216922F0B8
:1009E000F80242EAC1021A6088E7E268704BB2B1CD
:1009F00001221A60FFF70EFE6C4D06462B68980721
:100A000007D52B68226923F0F80343EAC2032B6061
:100A100074E7FFF7FFFD801B0228EFD9A7E71A60F4
:100A2000FFF7F8FD614D06462B6899077FF566AF25
:100A3000FFF7F0FD801B0228F6D998E762695D4B4D
:100A40007AB101221A60FFF7E5FD584D06466B6F3B
:100A50009F073FF557AFFFF7DDFD801B0228F6D952
:100A600085E71A60FFF7D6FD504D06466B6F980775
:100A70007FF548AFFFF7CEFD801B0228F6D976E759
:100A80004A4B1A6C12F0805228D101921A6C42F033
:100A900080521A641B6C03F080530193019B012662
:100AA000454D2B68D9051BD5A368404D012B27D197
:100AB0002B6F43F001032B67FFF7ACFD3B4D07465F
:100AC00041F288382B6F9B0739D5002E3FF41EAFBB
:100AD000364A136C23F08053136417E70026DFE7D0
:100AE0002B6843F480732B60FFF794FD07462B6857
:100AF000DA05D9D4FFF78EFDC01B0228F7D936E7F7
:100B0000052B04D12B6F43F004032B67D0E72A6F2A
:100B100022F001022A672A6F22F004022A67002BC2
:100B2000CAD1FFF777FD41F2883807462B6F980747
:100B3000CBD5FFF76FFDC01B4045F7D917E7FFF78F
:100B400069FDC01B4045BDD911E7184DAB6803F0E6
:100B50000C03082B47D0194E00230228336035D1EF
:100B6000FFF758FD07462B68990129D4226AE369EB
:100B70001343626A43EA8213E26A43EA0263A26AA7
:100B80000A4C5208013A43EA02436B600123336086
:100B9000FFF740FD054623689A013FF5BBAEFFF71E
:100BA00039FD401B0228F6D9E1E600BF00380240BB
:100BB00000004742800E47420070004060004742FC
:100BC000FFF728FDC01B0228CDD9D0E6FFF722FD94
:100BD00004462B689B017FF59DAEFFF71BFD001BB4
:100BE0000228F6D9C3E601283FF4C2AE6868E3697B
:100BF00000F480029A427FF479AE226A00F03F034B
:100C000093427FF473AE626A47F6C0730340934227
:100C10007FF46CAEA26A00F4403393427FF466AE78
:100C2000E36A00F07060C01A18BF0120A0E600BFA0
:100C3000134908B58B6803F00C03042B03D0082B71
:100C400003D0104808BD104808BD4A684B68496881
:100C500013F4800314BF0C480A48C1F3881118BF6D
:100C6000002302F03F02A1FB0001FFF701FB044B50
:100C70005B68C3F3014301335B00B0FBF3F008BDD5
:100C8000003802400024F40040787D012DE9F04155
:100C90000D46044610B90120BDE8F081444B1A68A6
:100CA00002F00F028A4229D321688F072ED4C80789
:100CB00041D43F4B1A6802F00F02954267D3226875
:100CC00051076DD4130707D53A4A2169936823F475
:100CD000604343EAC1039360FFF7AAFF354B364AEE
:100CE0009B68C3F30313D35CD840344B1860344B78
:100CF0001868FFF745FC0020BDE8F081CAB21A7001
:100D00001B6803F00F039942C5D1CDE7294B11F0C1
:100D1000040F1EBF9A6842F4E0529A600E0742BF69
:100D20009A6842F460429A609A68A06822F0F002E1
:100D300002439A60BBE762681E4B012A1DD11B6803
:100D400013F4003FA7D01B4EB36823F003031343F3
:100D5000B360FFF75FFC41F288380746B36862680A
:100D600003F00C03B3EB820FA3D0FFF753FCC01BBF
:100D70004045F3D90320BDE8F081911E01291B688D
:100D800002D813F0007FDDE713F0020FDAE7EAB2D2
:100D90001A701B6803F00F039D427FF47CAF8EE74F
:100DA0000449E0688B6823F4E05303438B6089E7D0
:100DB000003C024000380240A94A000828000020F8
:100DC0000400002010B5044690B1437903F0FF02FF
:100DD00013B9027101F04EFA22680223637113689D
:100DE00043F004031360002001236371A06010BD71
:100DF000012010BDF8B50379012B04460E4625D01D
:100E000063790120834220711DD102236371FFF7B2
:100E100001FC07462268556815F0010508D0936863
:100E2000E360336001236371002000232371F8BD68
:100E3000FFF7F0FBC01B0228ECD9012002236071F0
:100E40002571A360F8BD0423A360EEE70220F8BD7E
:100E5000F8B504460E4615461F4621688A6836EAEC
:100E6000020301D00020F8BD6B1CF7D0FFF7D2FBC6
:100E7000C01B8542F1D823685A6822F0E0025A600C
:100E80006268B2F5827F0AD1A268B2F5004F02D043
:100E9000B2F5806F03D11A6822F040021A60A26A8C
:100EA000B2F5005F07D11A6822F400521A601A687E
:100EB00042F400521A60012384F85130002384F870
:100EC00050300320F8BD000073B51346134A144E8A
:100ED00015684268B5FBF6F64FF47A757543B2F5BE
:100EE000827F044601950DD10A468021FFF7B0FFAD
:100EF00010B9002002B070BD636D43F0200363653C
:100F00000320F7E7019B002BF3D0019B013B0193EA
:100F100023689B681B06F5D4EBE700BF2800002080
:100F200000366E0110B50446002836D000238362D7
:100F300090F8513003F0FF021BB980F8502001F007
:100F4000B1F92168A068A269022384F851300B68C6
:100F500023F040030B6063680343E06803432069A8
:100F6000034360690343E0690343206A0343A06AC3
:100F7000034302F4007003430B60120C636A02F037
:100F800004021A434A60CB6923F40063CB6100205A
:100F90000123606584F8513010BD012010BD2DE99A
:100FA000F3411E4690F85030012B04460D46904602
:100FB00000F09B80012380F85030FFF72BFB0746A1
:100FC00094F85100C0B2012840F08D80002D5DD012
:100FD000B8F1000F5AD0032384F851300020A368E1
:100FE0006065A063A4F83680A087E0876064206411
:100FF00020682563B3F5004F08BF0368A4F8348068
:1010000004BF43F48043036003685B065EBF03686C
:1010100043F040030360E368B3F5006F63683ED1BB
:1010200013B1B8F1010F07D135F8023BC360256356
:10103000E38E013B9BB2E386E38E9BB2A3B93A46B3
:1010400031462046FFF740FF002849D1A36833B955
:1010500001932368DA6801929B680193019B606D9C
:10106000003018BF012011E022689368980705D569
:10107000236B33F8021BD1602363D9E7FFF7CAFA69
:10108000C01BB042D8D3711CD6D00320012384F8F2
:101090005130002384F8503002B0BDE8F08113B124
:1010A000B8F1010F08D12B780373236B013323634D
:1010B000E38E013B9BB2E386E38E9BB2002BBED056
:1010C00023689A68920703D5226B12781A73ECE7AB
:1010D000FFF7A0FAC01B8642EED8731CECD0D4E711
:1010E00020236365B2E70220D0E70220D4E72DE990
:1010F000F7431E4690F850300A9F012B04460D46D8
:10110000914600F0E280012380F85030FFF782FA28
:1011100094F851306168DBB2012B80460AD0B1F5FA
:10112000827F40F0D080A068002840F0CC80042B63
:1011300040F0C980002D00F0C480B9F1000F00F02C
:10114000C080002E00F0BD8094F85130C4F8389073
:10115000042B1CBF052384F85130002363652364EE
:1011600063642368E687E6861A68A687500658BF38
:101170001A68256358BF42F04002A68658BF1A601D
:10118000E268B2F5006F58D109B1012E07D135F8E8
:10119000022BDA60E38E2563013B9BB2E3860125D7
:1011A000E38E9BB2ABB9E38F9BB293B9424639460B
:1011B0002046FFF789FE002840F08180A368002BBD
:1011C00032D123680190DA6801929B680193019BF8
:1011D0002AE02268936899070DD5E38E9BB253B13C
:1011E0004DB1236B33F8021BD1602363E38E013BC7
:1011F0009BB2E38600259368DB070CD5E38F9BB297
:101200004BB1A36BD26823F8022BA363E38F013B9E
:101210009BB2E3870125FFF7FDF9A0EB08008742A9
:10122000BED87E1CBCD00320012384F8513000239B
:1012300084F8503003B0BDE8F08309B1012E08D125
:101240002A781A73236B01332363E38E013B9BB22D
:10125000E3860125E38E9BB21BB9E38F9BB2002B83
:10126000A4D02268936898070ED5E38E9BB25BB139
:1012700055B1236B1B781373236B01332363E38E08
:10128000013B9BB2E386002522689368D9070DD500
:10129000E38F9BB253B1A36BD2681A70A36B013377
:1012A000A363E38F013B9BB2E3870125FFF7B2F90C
:1012B000A0EB08008742CDD87B1CCBD0B3E720231E
:1012C00063650120B0E70220AEE70220B2E770B507
:1012D0000E461546044610B390F8493003F0FF025D
:1012E0001BB980F8482001F013F804F108012068C8
:1012F00000F018F8A2682068314600F03FF8236B30
:10130000A2686068294600F057F8A168226852F880
:10131000213043F0010342F82130002070BD01204C
:1013200070BD000070B50C688D6850F824304A68B4
:10133000114E1E4045EA0203CA6813430A6913436B
:101340004A6913438A691343CA6913430A6A1343F8
:101350004A6A13438A6A1343CA6A1343CA6B134324
:101360000A6B13433343082D08BF43F0400340F892
:101370002430002070BD00BF8000F0FF00EB82022F
:101380000B6888690343486843EA0013886830B5EE
:1013900043EA00230D69C8684969546843EA004379
:1013A000013D43EA0553023904F0404443EA016336
:1013B00023435360002030BDB3F5804F30B514D1C6
:1013C00050F822300A4C8D691C400B682B434D6845
:1013D00043EA05138D68C96843EA052343EA0143DC
:1013E000234340F82230002030BD6FF07043F8E70F
:1013F0000000F0CF2DE9F84F734F48233B70734B3B
:1014000028261E70724B88224FF0C0441A70714B10
:1014100001254FF0E80883F8008032202580FFF78F
:10142000FFF8CF23268023806B4B002283211A8074
:10143000198030211980ED212180642603211E802E
:10144000198012211980812119808521A4F800803A
:10145000198079211D801980CB21218039211980A3
:101460004FF02C01198034211A804FF0020E1980A0
:10147000F721A3F800E0218020211980EA212180B2
:10148000C0211A80C1201A802180262119804FF0A6
:10149000110C2080C520A3F800C0208035201880C2
:1014A0003E201880C7202080BE2018803620208053
:1014B000387818803A27552027801880B12020805E
:1014C0001B201A801880F22020800820188021809C
:1014D000E0211D804FF01F0921801A21A3F8009000
:1014E0004FF0180A19800F200A21A3F800A01980D4
:1014F0001880062018804520188087201880322008
:101500001880072019804FF0E1081880A3F800E048
:101510004FF0050E1880A3F800E01A80A4F80080B0
:101520004FF025081A804FF0100BA3F800804FF001
:101530002708A3F80080A3F800E0A3F800B04FF05C
:10154000090BA3F800B04FF0780B1F80A3F800B090
:101550004FF04D0BA3F800B0A3F800E04FF00D0ED4
:10156000A3F800A0A3F800E04FF0380EA3F800E0C5
:101570001F802A27A3F800902780EF271A801A805F
:101580001A801F802B2727801A801A801D803F25F4
:101590001D80B72525801880B620208019808221E3
:1015A00019803046A3F800801A80A4F800C0FFF725
:1015B00037F8292323803046FFF732F84FF02C0309
:1015C0002380BDE8F88F00BFB2010020B0010020E9
:1015D000B3010020B101002000000860014B83E846
:1015E000030070471000002070B54FF0C0452A245A
:1015F0002C800B4C060AC0B226802080100AD2B282
:10160000208022802B222A800A0A2280C9B21A0A4C
:10161000DBB22180228023802C232B8070BD00BF71
:101620000000086070B51546064A168886420B46CB
:1016300007D952888A4204D90246FFF7D5FF024BE8
:101640001D8070BD20000020000008602DE9F74FCC
:101650005F1A1646A6EB0008002FB8BF7F42B8F10C
:10166000000FB8BFC8F10008474504460D461A46AA
:10167000BDF830B004DD33460C46164605461A4622
:10168000B44205DD2B4615461A46234634461E460F
:10169000A2EB050A5346002BA6EB0409B8BF5B4238
:1016A0001FFA89F901930FFA89F1022391FBF3FAEA
:1016B0009542B4BF01234FF0FF330093B44202DDE3
:1016C00003B0BDE8F08F4745A0B21FFA85FEC8BF42
:1016D00001465A46CCBF70467146FFF7A3FF019BF7
:1016E000AAEB03039AB20FFA82FABAF1000F06DAF4
:1016F000009B1D4409EB02032DB20FFA83FA01345B
:1017000024B2DBE72DE9F347BDF83040BDF928509E
:10171000BDF92C60009491469A4607468846FFF72B
:1017200095FF33462A46514648460094FFF78EFF00
:1017300043463A46314628460A9402B0BDE8F0478F
:10174000FFF784BF2DE9F04F9B4693B2C3F101042C
:10175000C3EBC33385B05B001BB20193002300933E
:10176000BDF838700BF004038A46154624B2029384
:101770001FFA80F8BDF90030AB4202DB05B0BDE8CE
:10178000F08F002C08DB019B02339BB2013D1AB2A3
:101790001C442DB2019224B2BDF80060029B04EB00
:1017A0004604033424B2C3B1ABB21FFA8AF908F17C
:1017B000010009EB030130443A4689B280B2039339
:1017C000FFF730FF039B09F10101314408EB0300EF
:1017D0003A4689B280B2FFF725FF1BF0020F18D0FE
:1017E000ABB21FFA8AF908F10100A9EB03013044FA
:1017F0003A4689B280B20393FFF714FF039B09F1C5
:10180000FF31891B08EB03003A4689B280B2FFF72B
:1018100009FF1BF0080F1AD01FFA8AF303F1010E1B
:101820001FFA85F9B644A8EB09003A461FFA8EF173
:1018300080B20393FFF7F6FE039B08F1FF3009EB3C
:101840000301801B3A4689B280B2FFF7EBFE1BF022
:10185000010F1AD01FFA8AF9ABB209F1FF3EA8EBCB
:101860000300AEEB060E3A461FFA8EF180B20393E8
:10187000FFF7D8FE039B08F1FF30A9EB0301801BA3
:101880003A4689B280B2FFF7CDFE009B0133009348
:1018900070E72DE9F04F95B289B01C46C5F1010300
:1018A0001BB28FB20193C5EBC53386B25B00E91959
:1018B0001BB289B23046904622460393FFF7B2FE30
:1018C000791B224689B23046FFF7ACFEA8192246A2
:1018D000394680B2FFF7A6FE701B2246394680B219
:1018E000FFF7A0FE00230293731C0493731E05935D
:1018F0007B1C0693BDF90830434502DB09B0BDE807
:10190000F08F019B002B0CDB039B02339BB21AB2BE
:101910000392019A134408F1FF381BB20FFA88F8BA
:101920000193BDF80890019B03EB490303331BB2FD
:101930000193049B1FFA88F54B4407EB050B9BB200
:101940001FFA8BFB5946184622460793FFF76AFE9B
:10195000059BA3EB090A1FFA8AFA5946504622460C
:10196000FFF760FEA7EB050B079B1FFA8BFB1846E2
:1019700059462246FFF756FE594650462246FFF783
:1019800051FE069B06EB050A09EB030B1FFA8AFAC8
:101990001FFA8BFB751B224659465046ADB2FFF726
:1019A00041FE224659462846FFF73CFE7B1EA3EB2C
:1019B00009091FFA89F9224649465046FFF732FEC7
:1019C000224649462846FFF72DFE029B013302932B
:1019D00090E700002DE9F04F9A462E4B8946198872
:1019E00087B08842BDF840B050DA5B8899454DDA3F
:1019F000294B9E68B388C34248D4F38813EB090F80
:101A000044D4C3F3C7030093A2F12003049383B229
:101A10000293083300250593F188EAB2914235D943
:101A20004A4493B24FF00008019322E0049BF288ED
:101A3000E8B202FB0302009B306803FB0202029B38
:101A400012F808708AB2D418059B1A4493B2A4B253
:101A500003933B0616D5524601992046FFF7E2FD57
:101A60000134039BA4B27F00A342FFB2F1D108F17D
:101A70000108009B5FFA88F0C2008342D1B2D5D83A
:101A80000135C9E7DA45EBD05A46E5E707B0BDE8CE
:101A9000F08F00BF20000020100000200FB42DE9BF
:101AA000F04385B00CAA244852F8041B039202F0BC
:101AB000A7F9DFF89080214CDFF88C90204E18F8C1
:101AC000012F22B905B0BDE8F04304B070470A2ADF
:101AD00006D1B3686288DB8813446380002308E082
:101AE0000D2A07D0092A0DD1B3689A88238803EB01
:101AF00082032380B9F8023062889A4224BF00230F
:101B00006380DCE725886788B1883388009128B234
:101B100039B2FFF75FFFB268337B91880D44ADB2F5
:101B20002580002BE6D0B9F800305B1A9D42E1DD3C
:101B3000D3881F446780D1E7AC000020AC010020AF
:101B400010000020AB00002020000020814270B572
:101B50001E4638BF03460D4638BF1D460D4B1B8839
:101B6000044638BF0C469D4224BF03F1FF35ADB299
:101B70009C4224BF03F1FF34A4B2134619462A46FF
:101B80002046FFF731FD044BAC4200DD70BD1E80E6
:101B90000134F9E720000020000008602DE9F84337
:101BA0001E46154BBDF820801D88A84216DA5B88BA
:101BB00099420F4612DA1418A542B8BF2A1A06EB4A
:101BC0000104B8BF12B2A34284B2B8BF5E1A224465
:101BD000B8BF36B295B2F319994201DDBDE8F8837A
:101BE0001FFA81F9434629464A462046FFF7AEFFD1
:101BF00009F1010109B2EEE7200000208A4270B528
:101C00001E4638BF0B46154638BF1D46104B0C46C6
:101C100038BF14461A885B8882429CBF02F1FF32AB
:101C200090B29C4224BF03F1FF34A4B29D4224BF72
:101C300003F1FF35ADB22B4602462146FFF7D4FC37
:101C4000044BAC4200DD70BD1E800134F9E700BFDB
:101C500020000020000008602DE9F04F85B01FFA39
:101C600080FBBDF93890BDF83C805A441FFA89FAD0
:101C70001C4693B28DB2A3EB0A060BEB0A07BFB268
:101C8000B6B22C4403932A46434631463846A4B2A2
:101C9000FFF75CFF5544621EA4EB0A04434631463D
:101CA0003846ADB2A4B292B2FFF750FF4346224687
:101CB00029465846FFF7A2FF039B581E224643467B
:101CC00029463FB22DB280B2013EFFF797FF36B2F0
:101CD0004A4629463846CDF800800123013CFFF7EB
:101CE00031FD24B24A4629463046CDF80080022311
:101CF000FFF728FD4A4621463046CDF800800423F0
:101D0000FFF720FD08234A4621463846CDF83880A3
:101D100005B0BDE8F04FFFF715BD2DE9F04F87B0D6
:101D20008FB2049393B2C3F10104C3EBC3335B00DE
:101D30001BB20393BDF8403002939D1C0023019316
:101D4000049BBDF844A03D4403F00103164624B2B1
:101D5000ADB205931FFA80FBBDF90430B34202DB3C
:101D600007B0BDE8F08F002C08DB039B02339BB269
:101D7000013E1AB21C4436B2039224B2BDF804905C
:101D8000059B04EB4904033424B2DBB1029B5A1CCB
:101D90001FFA86F83A440BF101004244A7EB080110
:101DA0004844534692B289B280B2FFF727FF791EAA
:101DB000A1EB09010BEB080053462A4689B280B219
:101DC000FFF71CFF049B9B071CD5029B5A1C1FFAA4
:101DD00086F83A440BF1FF304244A7EB0801A0EB30
:101DE0000900534692B289B280B2FFF707FF791E0D
:101DF000A1EB0901ABEB080053462A4689B280B239
:101E0000FFF7FCFE019B013501330193ADB2A3E75F
:101E1000F7B5044690B20D46164689B2421C0A44F4
:101E2000091A92B2A0B289B21F46FFF7E7FE00235B
:101E3000009301970323324629462046FFF76DFFA2
:101E400003B0F0BD154A4FF0C04336211071198020
:101E500003280CD8DFE800F002171520104B197882
:101E6000104B1980F02313804FF4A07353805388D4
:101E70001288013B013A00219BB292B20846FFF75B
:101E8000B3BB094BEBE7094B1978064B19804FF4AC
:101E9000A0731380F023E9E7054BF5E7200000204D
:101EA000B201002000000860B3010020B001002052
:101EB000B101002010B4044C0246208061800B4622
:101EC0005DF8044BFFF790BBAC01002010B594B057
:101ED0003022002108A801F04FFF0021142203A89E
:101EE00001F04AFF0024194B01941A6C42F0805211
:101EF0001A641B6C03F080530193019B144B0294F2
:101F00001A6842F480421A601B680F9403F48043FD
:101F100002930122029B0B920223102208930C923F
:101F20000E9310921293C022042308A811921393C7
:101F3000FEF7D8FC0F23214603A8039304940594CD
:101F400006940794FEF7A2FE14B010BD00380240BC
:101F5000007000402DE9F0438FB0FEF735FBFFF72E
:101F6000B5FF1422002107A8002401F005FFA44BAF
:101F700002941A6BA348A44D42F010021A631A6B24
:101F800002F010020292029A03941A6B42F00102CC
:101F90001A631A6B02F001020392039A04941A6BFB
:101FA00042F004021A631A6B02F004020492049ACB
:101FB00005941A6B42F002021A631A6B02F00202D5
:101FC0000592059A06941A6B42F008021A631B6B7D
:101FD00003F0080306932246C021069BFEF776FC19
:101FE000224602218948FEF771FC01224FF48051FC
:101FF0008648FEF76BFC0126182307A9844807933F
:10200000022709960894FEF77BFB07A97D480796EF
:1020100009970894FEF774FBC02307A97948079332
:10202000089609940A94FEF76BFB2023079307A9EF
:10203000784B794808930994FEF762FB41F202035A
:1020400007A972480793089609940A94FEF758FB6B
:102050001C2221460DEB020001F08EFE6F48079610
:102060004FF02043036003F5827343604FF48053C5
:1020700083620F230893052307A94FF01008224617
:10208000099311230C938460C4600461C0F8148028
:102090008461C46104624462C4620463446384630F
:1020A0004464CDF82C80FFF712F95D485D4B036066
:1020B000FEF788FE5C4AAC604FF4827385E80C0042
:1020C0004FF40063EB604FF40073AB6128460A23C2
:1020D000EB622C616C61C5F81C802C626C62AC6296
:1020E000FEF720FF324639464848FEF7EFFB3246FE
:1020F00040214448464EFEF7E9FB224680214148F4
:10210000FEF7E4FBFFF776F93846FFF79BFE28461B
:1021100001F0A2FC01F01AFC384601F0E9FB4FF493
:10212000A071F02001F0EAFB00F0F0FF354D2746EA
:10213000FEF770FA04F57A7383420AD240212846EA
:10214000FEF7C9FB80212846FEF7C5FBFEF762FAC1
:10215000044601F083F801212846FEF7B1FB08216F
:1021600080463046FEF7ACFB102181463046FEF734
:10217000A7FBB9FA89F1B0FA80F2002352094909A4
:10218000404600F057FD0EA901A821F8327DADF8B8
:10219000047001F089FDBDF80400BDF8061058B3C5
:1021A00051B3012201F0BEF9BDF804201F4907A870
:1021B00001F0EAFDC821B420FFF77CFE07A8FFF775
:1021C0006DFCBDF806201A4907A801F0DDFDD721F6
:1021D000B420FFF76FFE07A8FFF760FC154B164908
:1021E0009A8807A801F0D0FDE621B420FFF762FE2F
:1021F00007A8FFF753FC9BE7002201F093F997E74C
:102200000038024000000240CC01002000040240DF
:10221000001002400000111000080240400200209F
:10222000800400200008065000380040944A00084E
:102230009B4A0008A4020020A24A000882B00C4B6E
:10224000002100915A6C42F480425A645A6C02F4A4
:1022500080420092009A01911A6C42F080521A64F6
:102260001B6C03F080530193019B02B0704700BFC9
:10227000003802400268094B9A4282B00BD1002319
:102280000193074B5A6B42F040025A635B6B03F0B9
:1022900040030193019B02B0704700BF0008065045
:1022A0000038024010B5044688B01422002103A86B
:1022B00001F062FD2268144B9A4223D103F50033EA
:1022C000002101911A6C114842F480421A641A6C80
:1022D00002F480420192019A02911A6B42F00202CA
:1022E0001A631B6B03F002030293029B4FF46043DB
:1022F0000393022304930323069303A9052307935F
:10230000FEF7FEF908B010BD00380040000402409E
:10231000F0B587B01422002101A801F02DFD154B66
:102320001C6824BB01221A60134B00949A6B13485B
:1023300042F001029A639B6B03F001030093009B40
:1023400002274FF6807303260C2501A901930297FB
:1023500004960595FEF7D4F94EF2B37301A9084827
:1023600001930297039404960595FEF7C9F907B007
:10237000F0BD00BFB4010020003802400010024050
:10238000000C02407047FEE7FEE7FEE7FEE77047FD
:1023900070477047FEF732B908B50A4B1968024614
:1023A00009B9094919601868694602448A4206D980
:1023B00001F0B8FC0C2303604FF0FF3008BD1A6039
:1023C00008BD00BFB8010020B0040020054BD3F8C1
:1023D000882042F47002C3F888204FF000629A60AF
:1023E000704700BF00ED00E084B0F7B508AC84E8AA
:1023F0000F00BDF82650BDF824709DF82830BDF8B8
:1024000022200092FC18EE181BB2A4B21A4629B280
:1024100038B2FFF7C3FBB6B22A46214638464FF61C
:10242000FF73FFF793FB3246214638464FF6FF73A2
:10243000FFF78CFB3246294638464FF6FF73FFF70D
:10244000DDFB4FF6FF7332462946204603B0BDE858
:10245000F04004B0FFF7D2BB84B02DE9F04F87B055
:1024600010AC84E80F009DF848B00BF10103039312
:10247000002605930FFA8BF3029604934FF0000A9F
:10248000D14609EB060310AA13445B7A012B34D121
:10249000029BBDF84640BDF844501C44BDF8423094
:1024A00000935544049B0BEB05071A4621B228B252
:1024B000BFB2ADB20BEB0408A4B2FFF76FFB1FFA7B
:1024C00088F84FF6FF73224639462846FFF73EFB51
:1024D0004FF6FF73424639462846FFF737FB4FF663
:1024E000FF73424621462846FFF788FB4FF6FF73ED
:1024F000424621463846FFF781FB09F10109059B59
:10250000B9F1050F9A44BCD1029B039A05361344D6
:10251000192E0293B2D107B0BDE8F04F04B0704756
:1025200084B02DE9F3470AAC84E80F009DF83050E1
:10253000002405F10109A0462DB2A24600273E461F
:1025400033190AAA13445B7A012B0DD1BDF82E1062
:10255000BDF82C00CDF800A0414438442B462A4653
:1025600009B200B2FFF71AFB0136052E4F44E7D13E
:102570000534192CC844E1D102B0BDE8F04704B0DD
:1025800070472DE9F0478A68D1F800A0D1F804908F
:10259000CB688AB001F1100680460C46EE4601F188
:1025A0003007354630687168F446ACE803000836F9
:1025B000BE42E646F6D13988ACF80010504649468E
:1025C000FFF7AEFFE088D4F800C0A2684044B0F541
:1025D000A07FC6BF0023E380E080D4F804E0E36876
:1025E0002C466D46206861682E4603C60834BC42FE
:1025F0003546F7D12188318060467146FFF72CFFC0
:102600000AB0BDE8F08784B08DE80F009DF8013076
:102610003BB1012B07D0022B07D0032B07D004B00E
:1026200070470120FBE70220F9E70320F7E70020CD
:10263000F5E72DE9F043D0F804C0D0F800908268A7
:10264000C3688BB000F1100604466F4600F13008F5
:10265000354630687168BE46AEE803000836464528
:102660007746F6D1B8F80010AEF80010484661463B
:10267000FFF756FFA388D4F800E05A1C237A1344CE
:10268000A3806768A268E3682C466D46206861688D
:102690002E4603C6083444453546F7D1218831809B
:1026A00070463946FFF7D8FE0BB0BDE8F0832DE940
:1026B000F0438268D0F80090D0F80480C3688BB0F3
:1026C00000F110060446EE4600F13007354630684A
:1026D0007168F446ACE803000836BE42E646F6D11F
:1026E0003988ACF8001048464146FFF719FFA38827
:1026F000227AD4F800C0013B9B1AA380D4F804E0EE
:10270000A268E3682C466D46206861682E4603C6C1
:102710000834BC423546F7D1218831806046714685
:10272000FFF79AFE0BB0BDE8F083000084B010B54F
:1027300003AC84E80E009DF80C209DF80D30012AB2
:1027400033D1012B0ED1AE4B03F1180253F8041B09
:1027500040F8041B9342F9D11B780370BDE8104088
:1027600004B07047032B09D1A64B03F1180253F8AC
:10277000041B40F8041B9342F9D1EDE74BB9A24B7F
:1027800003F1180253F8041B40F8041B9342F9D1DB
:10279000E2E7022BE2D19D4B03F1180253F8041B30
:1027A00040F8041B9342F9D1D6E7022A2ED1012B1F
:1027B00009D1974B03F1180253F8041B40F8041B8E
:1027C0009342F9D1C8E7032B09D1924B03F11802C8
:1027D00053F8041B40F8041B9342F9D1BCE74BB9F2
:1027E0008D4B03F1180253F8041B40F8041B93426D
:1027F000F9D1B1E7022BB1D1884B03F1180253F89C
:10280000041B40F8041B9342F9D1A5E7032A2ED1FB
:10281000012B09D1824B03F1180253F8041B40F835
:10282000041B9342F9D197E7032B09D17D4B03F1A8
:10283000180253F8041B40F8041B9342F9D18BE7AC
:102840004BB9794B03F1180253F8041B40F8041BF1
:102850009342F9D180E7022B80D1744B03F1180227
:1028600053F8041B40F8041B9342F9D174E7042A7F
:102870002FD1012B09D16E4B03F1180253F8041B21
:1028800040F8041B9342F9D166E7032B09D1694B49
:1028900003F1180253F8041B40F8041B9342F9D1CA
:1028A0005AE74BB9644B03F1180253F8041B40F884
:1028B000041B9342F9D14FE7022B7FF44FAF5F4BDC
:1028C00003F1180253F8041B40F8041B9342F9D19A
:1028D00042E7052A2FD1012B09D1594B03F11802E8
:1028E00053F8041B40F8041B9342F9D134E7032B3F
:1028F00009D1544B03F1180253F8041B40F8041B90
:102900009342F9D128E74BB94F4B03F1180253F822
:10291000041B40F8041B9342F9D11DE7022B7FF4FE
:102920001DAF4A4B03F1180253F8041B40F8041B77
:102930009342F9D110E7072A2FD1012B09D1444B3B
:1029400003F1180253F8041B40F8041B9342F9D119
:1029500002E7032B09D13F4B03F1180253F8041B84
:1029600040F8041B9342F9D1F6E64BB93A4B03F118
:10297000180253F8041B40F8041B9342F9D1EBE60C
:10298000022B7FF4EBAE354B03F1180253F8041B16
:1029900040F8041B9342F9D1DEE6062A7FF4DEAE4E
:1029A000012B09D12E4B03F1180253F8041B40F8F8
:1029B000041B9342F9D1CFE6032B09D1294B03F134
:1029C000180253F8041B40F8041B9342F9D1C3E6E4
:1029D0004BB9254B03F1180253F8041B40F8041BB4
:1029E0009342F9D1B8E6022B7FF4B8AE1F4B03F146
:1029F000180253F8041B40F8041B9342F9D1ABE6CC
:102A0000D24A0008044B0008B94A0008EB4A000803
:102A1000364B0008684B00081D4B00084F4B000860
:102A20009A4B0008CC4B0008814B0008B34B0008C0
:102A3000FE4B0008304C0008E54B0008174C00081E
:102A4000624C0008944C0008494C00087B4C00087C
:102A50002A4D00085C4D0008114D0008434D000848
:102A6000C64C0008F84C0008AD4C0008DF4C0008CC
:102A70002DE9F0478268D0F80090D0F80480C36850
:102A80008AB000F110060446EE4600F130073546E4
:102A900030687168F446ACE803000836BE42E6468A
:102AA000F6D13988ACF8001048464146FFF738FDAA
:102AB000D4F80090D4F80480A268E3682E46EE466D
:102AC00030687168F446ACE803000836BE42E6465A
:102AD000F6D13988ACF8001048464146FFF793FD1F
:102AE0006070D4F80090A36804F1090C04F10C02A2
:102AF0006E4604F12C0A10685168B646AEE8030031
:102B0000083252457646F6D11068CEF80000928819
:102B1000AEF80420604642464946FFF707FED4F867
:102B200000C0D4F804E0A268E3682C466D46206833
:102B300061682E4603C60834BC423546F7D1218869
:102B4000318060467146FFF787FC0AB0BDE8F08728
:102B500084B0F0B59FB025AE29AD86E80E000746DB
:102B60000FCD6C460FC40FCD0FC42B68238096E8A1
:102B70000F00FFF748FD14AD9DF894308DF8450027
:102B80008DF844300FCD6C460FC40FCD0FC495E8BF
:102B9000030044F8040B11AB21800ECB0AA8FFF709
:102BA000C5FD10AD0AAB3A461C4603CCAC421060E2
:102BB0005160234602F10802F6D12378137038469B
:102BC0001FB0BDE8F04004B070470000174BDA6852
:102BD000174BB2F57A7F08D193F8CC2102EB820231
:102BE000B3F8641101EB42020BE040F2EE218A429D
:102BF0000DD193F8CC21B3F8641102EB820201EB02
:102C00008202A3F86421B3F8640100F04FBDB2F56D
:102C1000FA7F93F8CC2102D1C2EB0212E0E7B3F8BD
:102C2000641102EB820201EBC202EAE7900200208B
:102C3000B002002010B5034C20706170A270E370E8
:102C400010BD00BF90040020104A114BF0B592F85F
:102C500066711D885E884FF00E0E0023052B00D193
:102C6000F0BDE8180EFB006003EB830C104400215C
:102C7000052901D10133F1E701EB0C04144494F868
:102C80006F41012C08BF47540131F1E7B002002029
:102C9000A00400202DE9F04F3D4B6FF4997203EB37
:102CA000020899B003F11405414600241A78012A5C
:102CB00014D10222481E845401320C2AFBD10A4648
:102CC00042450AD002F10A06104610F80D7C00F8C1
:102CD000017FB042F9D10E3AF2E71C700133AB42EA
:102CE00001F10E01E2D100230093812240F203138F
:102CF00028211E20FEF752FFDFF89CB00C238DF830
:102D000034302827C2461E260DF12C091AF8013F3F
:102D10009BB13BF81330ADF82E300FAD0FCD6C46A4
:102D2000ADF83060ADF832700FC40FCD0FC42B6812
:102D3000238099E80F00FFF757FB0D36B6B2A02E9F
:102D4000E4D10D37BFB2B7F5967F08F10E08D9D19F
:102D5000104C6E46D4F866C1D4F86AE1D4F86E21FE
:102D6000D4F8723104F5BB7504F5CB742868696832
:102D7000374603C70835A5423E46F7D12988398032
:102D800060467146FFF768FB19B0BDE8F08F00BFE1
:102D900000040020B0020020764D0008F0B5104C71
:102DA000022300200E2627464FF0010E06FB0345A6
:102DB0000222002115F802C0BCF1000F00D0013141
:102DC00001320C2AF6D10A2904BFFA18013003F1A6
:102DD000010304BF82F84EE1C0B2162BE6D1F0BD6C
:102DE000B002002084B0F0B505AC84E80F00164BAB
:102DF0000D9A1C885D880C9BDFF850E01D4414443C
:102E0000002301200E27052B03D1BDE8F04004B0BC
:102E10007047E11805AA07FB015103EB830616442E
:102E200071440022052A01D10133ECE711F802C0F8
:102E3000BCF1000F05D016F802C0BCF1010F08BFAD
:102E400000200132EEE700BFA0040020B002002005
:102E50001D4A138819445388F0B51C4C0E220344B4
:102E600002FB0131002601222746462E01D11046E1
:102E7000F0BD731800283B444FF0000521DA052D02
:102E800002D105340E36F0E713F805E0BEF1000F6D
:102E900007D004EB050E9EF86FE1BEF1010F08BFED
:102EA00000220135EBE713F805E0BEF1000F07D073
:102EB00004EB050E9EF86FE1BEF1010F08BF002282
:102EC0000135052DEFD1DCE7A0040020B002002081
:102ED00001210020FFF7BCBF00214FF0FF30FFF7BA
:102EE000B7BF00210120FFF7B3BF84B007B50DF1D4
:102EF000100E8EE80F009DF81820BDF81430511CFC
:102F0000BDF81620283A92FBF1F2023292B21E3B33
:102F1000002093FBF1F3023362F30F009BB263F3E3
:102F20001F4003B05DF804EB04B070472DE9F04397
:102F3000244D04468BB00F4623482946FDF75AFF1F
:102F40002B68224A277223F07F43B3FBF2F300225F
:102F5000002B08BF012362701D4A237032F8133022
:102F60006380D4F800806268A36804F1090C04F15E
:102F70000C056E4604F12C0928686968B646AEE86F
:102F8000030008354D457646F6D12868CEF8000096
:102F9000A988AEF8041060464146FFF7C7FB0C2F26
:102FA00006D14523A3802823E3800BB0BDE8F0833E
:102FB000052F03D1B423A3808523F5E7082FF4D18F
:102FC000F8E700BFAC0200208004002049922400F2
:102FD000764D00082DE9F043D0F804C0D0F8008009
:102FE000D0F808E0C3680D468BB0044600F110012C
:102FF0007ABB0A466E4600F13009106851683746C0
:1030000003C708324A453E46F7D112883A806146E6
:1030100072464046FFF784FA63886B8063786B7072
:1030200023462A4613F8091B02F8091B04F1210163
:1030300053F8040B42F8040B8B42F9D11B78137040
:10304000237A2B72A388AB80E388EB800BB0BDE8BA
:10305000F0830A466E4600F1300910685168374621
:1030600003C708324A453E46F7D112883A80614686
:1030700072464046FFF754FA63886B8063786B7042
:1030800023462A4613F8091B02F8091B213453F87A
:10309000041B42F8041BA342F9D11B7813700C23C4
:1030A0002B724523AB802823CFE70000124B134A35
:1030B0005868904210B51A4605D81149B1F8641104
:1030C000B1F5616F02D3FA23D36010BD0D4CA0425D
:1030D00002D8B1F5617F02D34FF4FA73F4E70A4CDA
:1030E000A04202D8B1F5967F02D340F2EE23EBE77F
:1030F0004FF47A72DA6010BD900200201FA1070021
:10310000B0020020AF1E0400BFD401002DE9F0433F
:103110008BB000F017FB494C00F02CFA484A002312
:10312000A4F8643184F8CA3184F8CB3184F8CC3106
:10313000537093706FF001000E26012506FB0042CC
:103140001C326FF00101132874D9157001310C295C
:1031500002F10102F7D101301628EFD139483A4D7A
:10316000FFF7E4FE08213948FFF7E0FEFDF752FAC9
:10317000A860FDF74FFA00236B6096232B614FF494
:103180007A73EB602860324DFFF790FF05F1200E57
:10319000D4F86691D4F86AC1D4F86E21D4F87231AB
:1031A0006E46F04628686968374603C70835754596
:1031B0003E46F7D12988398048466146FFF795FE9B
:1031C000244BD4F866C11880C0F30F405880D4F85F
:1031D0006AE1D4F86E21D4F872311D4D6E4628682C
:1031E0006968374603C7083545453E46F7D1298803
:1031F000398060467146FFF72FF9D4F898E1D4F88A
:103200009C71D4F8A021D4F8A431134C6D4604F17C
:10321000200C206861682E4603C608346445354694
:10322000F7D12188318070463946FFF715F90BB088
:10323000BDE8F083092988D8137087E7B002002021
:1032400036020020160400209002002048040020CE
:1032500026040020A0040020580400202DE9F04F8F
:10326000A54C94F8CA3195B0002B40F01A8104F5B2
:10327000CB7ED4F86681D4F86AC1D4F86E21D4F834
:10328000723104F5BB756E46F146286869683746A9
:1032900003C7083575453E46F7D129883980404631
:1032A0006146FFF722FE954D954E2880C0F30F40F2
:1032B0006880FFF70DFE8046FFF713FE0746FFF715
:1032C0000BFE8246FFF7F2FE33780B95002B76D08B
:1032D0004AF6E57000F0A2FA94F8CC3133B1FFF76A
:1032E00075FCFFF7D7FC002384F8CC31854DAB6823
:1032F0002A6903EB020BFDF78DF9834537D2824B28
:103300001A78012A1A465DD1804ED4F866A1D4F805
:103310006A21D4F86E310DAFEE4606F1200B30680D
:103320007168F446ACE8030008365E45E646F6D11F
:103330003068CCF80000B188ACF80410384651462B
:10334000FFF706FC00230493039314AA12E9070075
:103350006B4603C31A7097E80F00FFF743FD01287F
:1033600002D16B48FFF784FBFDF754F9A860EE68C3
:103370006B6833442E681E44FDF74CF9864203D334
:10338000B8F1000F40F09C80624BB4F868211A80BD
:1033900000F0F0F8B8F1010F35D15D490D20FFF7CD
:1033A000F0F8FDF737F92B68C01A4FF47A736860AC
:1033B000B0FBF3F015B0BDE8F04F00F089B948F26A
:1033C000104087E79B78012B06D1BAF1010F03D19A
:1033D0004F48FFF76CF9C7E75378012B05D1012F50
:1033E00003D14B48FFF725F9BEE7D378012B02D074
:1033F0003378002BB8D0B8F1010FB5D144490D2076
:10340000FFF7BFF8B0E7FFF71FFC4149424E01222A
:1034100001F13200FFF7DEFD08214048FFF786FD8D
:10342000D4F86681D4F86AC1D4F86E21D4F8723128
:103430006F4630687168BE46AEE8030008364E45F8
:103440007746F6D13188AEF8001040466146344EDA
:10345000FFF702F8D4F89881D4F89CC1D4F8A021E1
:10346000D4F8A4316F4606F1200930687168BE4671
:10347000AEE8030008364E457746F6D13188AEF8FF
:10348000001040466146FEF7E7FFFFF787FC0B9B05
:1034900084F8CC011B88032B9CBF012384F8CA311C
:1034A0007FE7174D6A781AB14FF4FC6000F012FA0A
:1034B00094F8CB313BB900F0E5F9012384F8CB3126
:1034C00015B0BDE8F08F104B1B78012B0DD10023F8
:1034D0000093812240F2031328211E20FEF75EFB99
:1034E00015B0BDE8F04FFFF711BEAB78012BE7D167
:1034F0006420FDF795F8EAE7B0020020A004002060
:1035000036020020900200209004002022040020B7
:103510001604002034020020260400204804002065
:1035200058040020C2B1A0F1BB03242B06D8A1F19E
:10353000FC03242B9EBF0D4B01221A700C4B93F8F9
:10354000CA31012B10D140383C280DD89B393C2979
:103550000AD8064A53707047044B5A78012A08BFAC
:103560009A7000221A705A70704700BF360200200D
:10357000B00200202DE9F0414B4B98B01B88ADF80C
:103580002E300C238DF834301B2411254FF0000809
:103590000BAE0DF13C0EBEE80F006F46ADF830509B
:1035A000ADF832400FC7BEE80F000FC7DEF800309D
:1035B0003B8096E80F00FEF717FFB8F10B0F14BF22
:1035C0000D350D3408F1010814BFADB2A4B2B8F145
:1035D0000C0FDED14FF001080DF13C0EBEE80F00DC
:1035E0006F46ADF83050ADF832400FC7BEE80F005F
:1035F0000FC7DEF800303B8096E80F00FEF7F4FEC0
:10360000B8F1150F14BF0D340D3D08F1010814BFBA
:10361000A4B2ADB2B8F1160FDED14FF001080DF132
:103620003C0EBEE80F006F46ADF83050ADF83240AA
:103630000FC7BEE80F000FC7DEF800303B8096E8EA
:103640000F00FEF7D1FEB8F10B0F14BF0D3D0D3C7E
:1036500008F1010814BFADB2A4B2B8F10C0FDED16D
:103660004FF001080DF13C0EBEE80F006F46ADF8BB
:103670003240ADF830500FC7BEE80F000FC7DEF87C
:1036800000303B8096E80F00FEF7AEFEB8F1150F54
:1036900018BF0D3C08F1010818BFA4B2B8F1160F0D
:1036A000E0D118B0BDE8F0813402002007B5024631
:1036B000064901A800F068FB0A21B420FEF7FAFBD6
:1036C00001A8FEF7EBF903B05DF804FB964A000889
:1036D00007B50246064901A800F056FB0A213C2026
:1036E000FEF7E8FB01A8FEF7D9F903B05DF804FB8B
:1036F000B04D00082DE9FF4106B20FFA81F80546EA
:1037000017460C461346414630460F22FEF7C1F8D5
:103710003B46414630461222FEF7BBF8631F053494
:103720001BB205F10A02A5F10A0024B20297019426
:10373000009612B2194600B2FDF7E4FF04B0BDE8EE
:10374000F0810000F7B52D4B2D4E47F6EF321A8071
:1037500048F2104333802B4B00254FF47842002170
:103760004FF6E0700A241A804FF6FF77FDF736FF18
:103770002946284600954FF4A073F022FEF70EFA72
:103780004FF4A073F022294628468DE89000FEF7FA
:1037900063FA21461420FEF78DFB1B48FEF77EF9E5
:1037A00021463C20FEF786FB1848FEF777F92146B4
:1037B0007820FEF77FFB1648FEF770F92146B4200B
:1037C000FEF778FB1348FEF769F96421B420FEF791
:1037D00071FB1148FEF762F90523009330231A4666
:1037E00001978221B420FEF737FA32884FF48771AF
:1037F000CD2003B0BDE8F040FFF77CBF34020020CD
:103800009A0400202A020020964D0008A54D0008C9
:103810009C4D0008A34D0008AA4D0008054B1988CF
:103820008142024605D018804FF48771CD20FFF702
:1038300061BF70479A04002070B505B20EB21446FD
:10384000314628464FF6FF731E22FEF7E1FA234663
:103850001C2231462846FEF7DBFAB4214D20FEF744
:1038600029FB21460020FDF7B9FE0548FEF716F9B1
:1038700000214FF6E070BDE87040FDF7AFBE00BF1D
:10388000904D000807B540F2FF7341220093692173
:1038900082233E20FEF782F97D215220FEF70AFBAB
:1038A0000948FEF7FBF88C215220FEF703FB07487E
:1038B000FEF7F4F8064B1A88B9215E2003B05DF8D4
:1038C00004EBFFF7B9BF00BF864D00088B4D000821
:1038D0002A020020054B19888142024604D0188034
:1038E000B9215E20FFF7A8BF704700BF9A040020EF
:1038F000014B1870704700BF98040020014B1880DE
:10390000598070479C040020034B9B78082B0CBF08
:1039100007202820704700BFA4040020034B19880B
:10392000034B00221868FCF7D1BF00BF280200201B
:1039300024020020034B1988034B01221868FCF76E
:10394000C5BF00BF2802002024020020134B002125
:103950009970D970502159700122802119701A7103
:103960000F4B1A700F4BF0221A804FF4A0725A803E
:103970000D4B4FF480521A800C4B02F1804202F53D
:10398000FA321A600A4B20221A800A4B0A4A1A603D
:103990000A4BD1221A70FFF7CDBF00BFA40400204C
:1039A000980400209C04002028020020240200200B
:1039B0003A02002094040020000802403C0200204B
:1039C00008B5054B1988054B1868FCF779FFB0FA64
:1039D00080F0400908BD00BF3A0200209404002096
:1039E000044B187918B1831E584258417047012082
:1039F000704700BFA404002008B5FFF7F1FF18B11D
:103A0000BDE80840FFF7DCBFFFF77EFF034B9B8854
:103A1000834294BF0020012008BD00BF2C0200207B
:103A2000064A137851780B4391780B43D178127979
:103A30000B431343024A1370704700BFA4040020D5
:103A40003C020020034B9B78082B40F26C7008BFAF
:103A500078207047A4040020014B1860704700BF15
:103A6000C80100202DE9F04F8BB0FFF757FFFFF79B
:103A7000B7FF002840F0B98000260A238DF81460B3
:103A80008DF815600393374635463446DFF81082CB
:103A9000DFF810B250234FF000094FF0FF3A8BF8D7
:103AA0000130FFF7BDFF4FF0FF3301227749D8F80F
:103AB00000008DF818908DF81990FDF770FA06AA9D
:103AC00005A90223CDF800A0D8F80000FDF70FFBF0
:103AD00010238BF80130FFF7A3FF534601226B49F7
:103AE000D8F800008DF81C908DF81D90FDF757FA5E
:103AF00007AA05A90223CDF800A0D8F80000FDF719
:103B0000F6FA30238BF80130FFF78AFF5346012283
:103B10005E49D8F800008DF820908DF82190FDF7CF
:103B20003EFA08AA05A90223CDF800A0D8F80000A3
:103B3000FDF7DDFA40238BF80130FFF771FF5346A4
:103B400001225249D8F800008DF824908DF8259074
:103B5000FDF725FA022309AA05A9CDF800A0D8F897
:103B60000000FDF7C4FA9BF802309DF819109DF88B
:103B70001D209DF821E09DF82500002B3DD19DF8EA
:103B800018301B0943EA01139DF81C10090941EA8A
:103B900002111C449DF820209DF8243012091B09B5
:103BA00042EA0E1243EA00130D4417441E44039BDD
:103BB000013B03937FF46AAF354B0A22B7FBF2F760
:103BC000BFB2B4FBF2F4B5FBF2F51C805D809F80C0
:103BD000B6FBF2F6DE80FFF735FF2E4B1B78032B8A
:103BE00033D8DFE803F00F213542FFF7E9FE002864
:103BF0007FF442AF0BB0BDE8F08F0C44154477441E
:103C00000644D4E72449254A0B88A4B2041B634325
:103C10004C8893FBF0F30A3B1380ADB26C4394FBEA
:103C2000F0F45480978010E01B491C4BADB2421B4E
:103C30000D889F8055434A8895FBF0F5A4B2544304
:103C400094FBF0F40A3C1D805C80FFF773FED1E723
:103C50001149124A0E88A3B27343ADB293FBF0F33D
:103C60000A3B1380451B4C88D8E70B4B0B4A19883D
:103C70005B88A4B2ADB2041B4D435C4395FBF0F5E9
:103C800094FBF0F415800A3CCBE700BF3C02002017
:103C90002C020020980400209C040020A402002094
:103CA000C8010020A404002038B505460C46FFF7E3
:103CB000D9FEFFF7A1FE28B1044B1A882A805B8841
:103CC000238038BD2880208038BD00BFA40200209A
:103CD000DFF834D0002103E00C4B5B584350043133
:103CE0000B480C4B42189A42F6D30B4A02E00023D1
:103CF00042F8043B094B9A42F9D3FEF767FB00F008
:103D000017F8FEF727F9704700000220F84D000869
:103D1000000000209000002090000020B00400204F
:103D2000FEE70000014B1868704700BF2C00002020
:103D300070B50D4E0D4CA41BA4100025A54209D151
:103D40000B4E0C4C00F060FCA41BA4100025A542F7
:103D500005D170BD56F8253098470135EEE756F885
:103D6000253098470135F2E7F04D0008F04D000886
:103D7000F04D0008F44D000802440346934200D180
:103D8000704703F8011BF9E70EB400B59CB04FF47F
:103D900002711DABADF81410029006906FF0004157
:103DA0000A48049107914FF6FF7153F8042BADF8C0
:103DB00016100068019302A900F088F8029B002207
:103DC0001A701CB05DF804EB03B070472C000020A3
:103DD00010B59AB04FF40274009104916FF0004155
:103DE000029105914FF6FF71ADF80E106946ADF8DE
:103DF0000C4000F06BF8009B00221A701AB010BD46
:103E000013460A46014602480068FFF7E1BF00BFBB
:103E10002C0000202DE9F0478E689E4282460C4619
:103E20009146984635D88A8912F4906F31D025682A
:103E300009696F1A6569022305EB450595FBF3F5E2
:103E400008F101033B449D4238BF1D46530531D55F
:103E5000294600F039FB064650B90C23CAF8003059
:103E6000A38943F04003A3814FF0FF30BDE8F08702
:103E70003A46216900F0B4FAA38923F4906343F031
:103E80008003A381266165613E44ED1B2660A56029
:103E90004646464528BF464632464946206800F019
:103EA000AAFAA3689B1BA36023681E442660002017
:103EB000BDE8F0872A4600F065FB06460028E1D100
:103EC0002169504600F0B2FAC7E700002DE9F04F33
:103ED0009DB0804603938B891C060D4616460FD570
:103EE0000B696BB9402100F0EFFA2860286128B90E
:103EF0000C23C8F800304FF0FF30C5E040236B6161
:103F00000023099320238DF8293030238DF82A309F
:103F10004FF0010B37463C4614F8013B002B3CD1D7
:103F2000B7EB060A0BD05346324629464046FFF708
:103F300071FF013000F0A380099B534409933B7843
:103F4000002B00F09C8000234FF0FF320493079376
:103F5000059206938DF853301A9305222178504824
:103F6000FCF736F9671C049BD8B9D90644BF202258
:103F70008DF853201A0744BF2B228DF85320227846
:103F80002A2A16D0079A00210A20274601343B78B6
:103F9000303B092B51D9C9B111E0252BC0D02746A0
:103FA000B9E73F4A801A0BFA00F0184304903C46E8
:103FB000D3E7039A111D12680391002A01DB0792CF
:103FC00004E0524243F00203079204933B782E2B05
:103FD0000ED17B782A2B07F1010132D1039B1A1DE8
:103FE0001B680392002BB8BF4FF0FF3302370593D5
:103FF0002C4C397803222046FCF7EAF838B14023EC
:10400000001B03FA00F0049B034304930137397843
:1040100025488DF8281006227E1CFCF7D9F80028C8
:1040200035D0224BFBB9039B073323F0070308333A
:104030000393099B4B4409936CE700FB0232012177
:10404000A3E70023059318460A240F4601313A7866
:10405000303A092A03D9002BCAD00590C8E704FBDF
:1040600000200123F1E703AB00932A46104B04A97B
:104070004046AFF30080B0F1FF3F8146D9D1AB8914
:104080005B063FF538AF09981DB0BDE8F08F03AB74
:1040900000932A46064B04A9404600F081F8EAE75F
:1040A000B54D0008BB4D0008BF4D000800000000E2
:1040B000153E00082DE9F04791461F468A680B69B6
:1040C000DDF820809342B8BF1346C9F8003091F85C
:1040D000432006460C4612B10133C9F8003023686C
:1040E000990642BFD9F800300233C9F8003025687C
:1040F00015F0060507D104F1190AE368D9F8002084
:104100009B1A9D4229DB94F843302268003318BF84
:10411000012392062ED404F1430239463046C047AB
:10412000013021D02368E568D9F8002003F00603A8
:10413000042B08BFAD1AA36822690CBF25EAE575F8
:1041400000259342C4BF9B1AED184FF000091A34A2
:104150004D451BD10020BDE8F0870123524639466A
:104160003046C047013003D14FF0FF30BDE8F08743
:104170000135C2E7E1185A1C302081F8430022447F
:1041800094F8451082F843100233C4E70123224615
:1041900039463046C0470130E6D009F10109D7E77A
:1041A0002DE9F04317460A7E85B06E2A98460646EA
:1041B0000C460C9B01F1430E00F0BC801AD8632A18
:1041C0002ED00AD8002A00F0C880582A00F08A8031
:1041D00004F1420584F842202AE0642A01D0692AC9
:1041E000F6D121681A6811F0800F23D0111D1960D3
:1041F000136827E0732A00F0B48008D86F2A2AD009
:10420000702AE5D10A6842F020020A6003E0752AAC
:1042100021D0782ADCD1782284F845206E4964E0E8
:104220001A6801F14205111D1960136884F84230C3
:104230000123A3E011F0400F02F104011960D7D06F
:10424000B2F90030002B03DA2D225B4284F84320C0
:1042500062490A2217E02068196810F0800F03D025
:10426000081D18600B6806E010F0400F01F1040013
:104270001860F7D00B8859496F2A14BF0A22082208
:10428000002084F843006568A560002DC0F29C8082
:10429000206820F004002060002B3FD1002D40F06A
:1042A00095807546082A0BD12368DA0708D523695B
:1042B00062689A42DEBF302305F8013C05F1FF3504
:1042C000AEEB05032361CDF800803B4603AA2146EF
:1042D0003046FFF7EFFE013055D14FF0FF3005B00B
:1042E000BDE8F08381F845203C492268186812F047
:1042F000800F00F104051D6001D0036802E055063F
:10430000FBD50388D00744BF42F0200222601BB9CE
:10431000226822F0200222601022B1E77546B3FB2A
:10432000F2F002FB1033CB5C05F8013D0346002898
:10433000F5D1B7E708681A68496910F0800F04D012
:10434000101D18601368196007E010F0400F02F1AB
:10435000040018601368F6D01980002323617546A5
:10436000B1E71A68111D19601568626800212846B6
:10437000FBF72EFF08B1401B6060636823610023D8
:1043800084F843309FE723692A4639463046C047C0
:104390000130A2D023689B0707D5002504F1190935
:1043A000E368039A9B1A9D4205DBE068039B9842F1
:1043B000B8BF184693E701234A4639463046C047FE
:1043C00001308AD00135EBE7002BA7D10B7884F8B8
:1043D000423004F1420565E7D74D0008C64D00089C
:1043E00010B5431E0A44914200D110BD11F8014B93
:1043F00003F8014FF7E7884210B501EB020303D839
:10440000421E99420CD110BD9842F9D28118D21A9D
:10441000D34200D110BD13F8014D01F8014DF7E76B
:1044200011F8014B02F8014FEBE7000038B50546E3
:10443000002945D051F8043C0C1F002BB8BFE418EC
:1044400000F0D6F81F4A1368104633B96360146051
:104450002846BDE8384000F0CCB8A3420CD921680A
:104460006218934204BF1A685B68636004BF521805
:1044700022600460ECE713465A680AB1A242FAD9F6
:1044800019685818A0420BD120680144581882427C
:104490001960DDD1106852685A6001441960D7E78D
:1044A00002D90C232B60D3E7206821188A4204BF6D
:1044B00011685268626004BF091821605C60C7E738
:1044C00038BD00BFBC01002070B5CD1C25F0030530
:1044D00008350C2D38BF0C25002D064601DBA942FE
:1044E00003D90C233360002070BD00F081F8234A0B
:1044F0001468214691B9224C23681BB9304600F05C
:1045000067F820602946304600F062F8431C26D147
:104510000C233360304600F06CF8E4E70B685B1B5B
:104520001AD40B2B0FD90B60CD50CC18304600F0AD
:1045300060F804F10B00231D20F00700C31A1BD004
:104540005A42E25070BD8C420DBF63684B68636095
:10455000136018BF0C46E9E70C464968CAE7C41C5B
:1045600024F00304A04205D0211A304600F030F8B0
:104570000130CDD02560D9E770BD00BFBC0100205F
:10458000C0010020F8B5074614460E4621B9114671
:10459000BDE8F840FFF798BF22B9FFF747FF25466F
:1045A0002846F8BD00F026F884420FD92146384647
:1045B000FFF78AFF05460028F2D031462246FFF772
:1045C0000FFF31463846FFF731FFE9E73546E7E7A9
:1045D00038B5064C0023054608462360FDF7DCFE8F
:1045E000431C02D1236803B12B6038BDAC0400200A
:1045F0007047704751F8040C0028A0F10400BCBFBC
:104600000B58C01870470000F8B500BFF8BC08BCD4
:104610009E467047F8B500BFF8BC08BC9E46704780
:10462000000000000000000000000000001010105A
:104630001010000010000000006C4848000000004E
:1046400000000000001414287C287C285050000032
:1046500000103840403848701010000000205020F2
:104660000C700814080000000000001820205448B6
:1046700034000000001010101000000000000000C6
:10468000000808101010101010080800002020105A
:10469000101010101020200000107C10282800009E
:1046A000000000000000101010FE101010000000AC
:1046B0000000000000000018103020000000000082
:1046C000007C00000000000000000000000000303E
:1046D00030000000000404080810102020400000F2
:1046E0000038444444444444380000000030101072
:1046F000101010107C000000003844040810204402
:104700007C00000000384404180404443800000011
:10471000000C141424447E040E000000003C2020F1
:104720003804044438000000001C2040784444440D
:1047300038000000007C4404080808101000000045
:1047400000384444384444443800000000384444AD
:10475000443C0408700000000000003030000030CD
:104760003000000000000018180000183020000081
:1047700000000C10608060100C00000000000000C1
:104780007C007C00000000000000C02018041820FD
:10479000C0000000000018240408100030000000D1
:1047A0003844444C54544C404438000000301028E5
:1047B00028287C44EE00000000F844447844444437
:1047C000F8000000003C44404040404438000000F5
:1047D00000F0484444444448F000000000FC4450C9
:1047E00070504044FC000000007E22283828202021
:1047F00070000000003C4440404E4444380000003B
:1048000000EE44447C444444EE000000007C101060
:10481000101010107C000000003C080808484848B0
:104820003000000000EE444850704844E6000000AC
:1048300000702020202024247C00000000EE6C6CFE
:1048400054544444EE00000000EE64645454544C4C
:10485000EC00000000384444444444443800000064
:1048600000782424243820207000000000384444BC
:1048700044444444381C000000F84444447848440C
:10488000E200000000344C4038040464580000008A
:1048900000FE9210101010103800000000EE44448A
:1048A000444444443800000000EE444428282810C2
:1048B0001000000000EE44445454545428000000FA
:1048C00000C6442810102844C600000000EE44280A
:1048D0002810101038000000007C440810102044FC
:1048E0007C000000003820202020202020203800DC
:1048F0000040202020101008080800000038080898
:1049000008080808080838000010102844000000B3
:10491000000000000000000000000000000000FE99
:104920000010080000000000000000000000003837
:10493000443C44443E00000000C0405864444444A9
:10494000F80000000000003C4440404438000000F3
:10495000000C04344C4444443E0000000000003885
:10496000447C40403C000000001C207C2020202093
:104970007C000000000000364C4444443C043800F5
:1049800000C0405864444444EE0000000010007031
:10499000101010107C0000000010007808080808B3
:1049A0000808700000C0405C48705048DC000000FF
:1049B00000301010101010107C000000000000E803
:1049C00054545454FE000000000000D86444444491
:1049D000EE00000000000038444444443800000069
:1049E000000000D8644444447840E00000000036F1
:1049F0004C4444443C040E000000006C3020202055
:104A00007C0000000000003C4438044478000000B2
:104A10000000207C202020221C000000000000CC90
:104A20004444444C36000000000000EE4444282872
:104A300010000000000000EE445454542800000010
:104A4000000000CC48303048CC000000000000EEF0
:104A500044242818101078000000007C48102044DE
:104A60007C0000000008101010102010101008002A
:104A70000010101010101010101000000020101066
:104A80001010081010102000000000000024580032
:104A900000000000583A2530366900593A25303672
:104AA00069005A3A25303669000000000000000015
:104AB00000010203040607080900000100000000CD
:104AC00001000000000100000000010000000000E3
:104AD00000000000000000000000000001010101D2
:104AE00000000000000000000000000000010000C5
:104AF00000000100000000010000000001000000B3
:104B000000000000000000000000000000000101A3
:104B10000101000000000000000000000000000093
:104B20000000000100000000010101000000000081
:104B30000000000000000000000000000001010073
:104B40000000010000000001000000000000000063
:104B50000000000000000000000001010100000052
:104B60000001000000000000000000000000000143
:104B70000000000001000000010100000000000032
:104B80000000000000000000000100000101010021
:104B90000000000000000000000000000000000015
:104BA0000001000000000100000000010100000001
:104BB00000000000000000000000000000000101F3
:104BC00001000001000000000000000000000000E3
:104BD00000000101000000000100000000010000D1
:104BE00000000000000000000000000000000000C5
:104BF00001010000000101000000000000000000B1
:104C000000000000000000000001010000000101A0
:104C10000000000000000000000000000000000094
:104C20000000010100000001010000000000000080
:104C30000000000000000000000000010100000072
:104C40000101000000000000000000000000000062
:104C50000101000001010000000000000000000050
:104C60000000000000000000000100000000010141
:104C70000000000001000000000000000000000033
:104C80000000000000000001010000010100000020
:104C90000000000000000000000000010000000013
:104CA0000101000000000100000000000000000001
:104CB00000000000010000000101010000000000F0
:104CC00000000000000000000000000000010000E3
:104CD00000000101000000010000000000000000D1
:104CE00000000000000000000000010101000000C1
:104CF00001000000000000000000000000000001B2
:104D000000000001010000000001000000000000A0
:104D1000000000000000000101000000000101008F
:104D20000000000000000000000000000000000083
:104D3000000100000001010000000100000000006F
:104D40000000000000000000000101000000000160
:104D50000100000000000000000000000000000052
:104D6000000000010000000101000000010000003F
:104D70000000000000008A52EF0300F820FD0F78C9
:104D80001FF8E00718C647414D45004F56455200F1
:104D900053544152540054494D453A0053434F52E5
:104DA000453A00303030303030004E4558543A00EB
:104DB0002530346900232D302B2000686C4C0065B1
:104DC0006667454647003031323334353637383937
:104DD000414243444546003031323334353637386A
:084DE00039616263646566003D
:084DE800B8B4FF7F01000000D8
:044DF000B501000801
:044DF4009101000821
:104DF80001000000100000002046000807000C0019
:104E0800E0FF000000000000080000200100000092
:104E1800F0004001000101000024F40030000020EF
:104E2800000000000000000000000000000000007A
:104E3800000000000000000000000000000000006A
:104E4800000000000000000000000000000000005A
:104E5800000000000000000000000000000000004A
:104E6800000000000000000000000000000000003A
:104E7800000000000000000000000000000000002A
:0400000508003CD1E2
:00000001FF
